:020000040800F2
:1000000008010020F9100008E5100008E7100008BA
:1000100000000000000000000000000000000000E0
:10002000000000000000000000000000EB100008CD
:100030000000000000000000ED100008EF100008B4
:10004000070F000800000000C3100008CF100008D0
:10005000191100081B1100081D1100081F110008CC
:1000600000000000490D00082111000823110008BC
:1000700025110008271100082911000800000000C0
:100080002B11000800000000000000002D110008E6
:1000900000000000F11000082F11000831110008C5
:1000A00000000000331100080000000035110008B6
:1000B0000121C206D20E9140BF4A11607047F0B5CF
:1000C00040B2002821D5BD4C40B20207120F083AB9
:1000D000950804225543B94A40B203071B0F083B59
:1000E0009B0804267343D258FF238607B60F0827C0
:1000F0007E43B3409A438B01DBB28607B60F0827D5
:100100007E43B340134363511AE0AD4A40B28308C3
:1001100004246343D258FF238407A40F08256C43AB
:10012000A3409A438B01DBB28407A40F08256C43DC
:10013000A3401343A24A40B2840804256C431351E0
:10014000F0BD38B500F016FA9E4800889E494988EF
:10015000884200D011E19B4800899B49898D8842E3
:1001600000D00AE100200100984A1278C9B29142F9
:1001700008D20021944AC0B22A234343D2185180A6
:10018000401CF0E70024A4B2802C41DA684600F05D
:1001900073FC002001008D4A1278C9B2914235D219
:1001A0008949C0B22A224243895A6A46C0B2022310
:1001B0004343D25A914227D26946C0B202224243F7
:1001C000895A814AC0B22A234343D25A891A6A46BD
:1001D000C0B202234343D1527B49C0B22A224243D8
:1001E000891849886A46C0B202234343D25A9142D1
:1001F0000AD26946C0B202224243895A724AC0B248
:100200002A234343D2185180401CC3E7641CBAE739
:10021000002420006D490978C0B2884200D3ACE0C8
:100220006948E4B22A21614340184088102100F057
:1002300069FC6549E4B22A2262438918C88462488D
:10024000E4B22A2161434018008D5F49E4B22A22BA
:1002500062438918C988401A5B49E4B22A22624382
:100260008918C98C40185849E4B22A226243891877
:1002700008850020C0B2102815DA5349E4B22A22BA
:1002800062438918C0B20222424389184E4AE4B23E
:100290002A236343D218C0B202234343D2181289DF
:1002A000CA80401CE6E74848E4B22A21614340186E
:1002B000008D4549E4B22A22624389184880002013
:1002C0000021C9B210290FDA3F4AE4B22A2363435E
:1002D000D21852889F4BC9B202254D435B5B9A42AC
:1002E00002D3401C491CECE79B490978082904D13A
:1002F000C0B2022100F006FC06E0974909781029F7
:1003000002D0964909784843C0B22F49E4B22A2264
:1003100062438918488090490978491E2A4AE4B204
:100320002A236343D2185288914208DA8A4909780D
:10033000491E254AE4B22A236343D2185180224938
:10034000E4B22A226243891849881E4AE4B208238B
:100350006343D25A914207D300211A4AE4B20823D8
:100360006343D218917106E00121164AE4B20823D2
:100370006343D2189171641C4BE700242000134999
:100380000978C0B288420DD20F48E4B22A216143F5
:1003900041180C48E4B208226243801800F018F8B3
:1003A000641CEBE709480078022801D100F0A8F8A6
:1003B00000F0D6FAC8E6000000E100E01CED00E025
:1003C00000E400E0BC0200206802002000000020E1
:1003D00030B58279002A07D102884B889A4203D22D
:1003E0000288521C028009E08279012A06D14A88DB
:1003F00003889A4202D20288521E028042880388F1
:100400009A421DD30279521C02714279002A07D107
:100410000279142A04D101224271052202711BE0E3
:100420004279012A18D10279062A15D10288438817
:100430009A4202D24288521E4280002202710BE090
:100440008279002A08D1028842804279012A03D1A8
:100450000022427100220271002213003E4C2478D7
:100460009BB2A4B2A34241D2130004889BB2A34220
:1004700031D292B2002A08D1394B92B28C88141929
:1004800004256C43374D1D512EE092B2012A08D14C
:10049000334B92B28C88141904256C43324D1D5194
:1004A00022E01300314C24789BB2A4B2A34209D2BB
:1004B0002B4B92B28C88141904256C43FF252D0414
:1004C0001D5111E0264B92B28C88141904256C43FF
:1004D000274D1D5108E0224B92B28C881419042537
:1004E0006C438025AD021D51521CB6E71C4A43885F
:1004F0008C881B1904246343FF242402D45030BD8C
:1005000010B5002414480078022100F0FBFAA4B2D0
:1005100084421DDA1248A4B20421614340581049B4
:100520000D4A1278521EA4B2121B04235A43895852
:100530000B4AA4B204236343D1500949064A1278F6
:10054000521EA4B2121B04235A438850641CD9E7DC
:1005500010BD00009C0F0008D902002001000020FF
:10056000080100208F0010001F003F00D80200206B
:1005700000FF8F0070B582B011208849086088485C
:100580000068A0218903014385480160854800680F
:10059000802149040143834801608248006880014A
:1005A000FBD57F480068032188437D4908607C486B
:1005B0000068022101437A480160794800680C21F3
:1005C00001400829F9D1D84800688421C9030143B2
:1005D000D5480160D548006810210143D348016027
:1005E000D34800688007800FD2490870CE48006861
:1005F000D5490140CC480160CE480078002805D09C
:1006000002280BD006D303280CD00EE00820C949DD
:1006100008700AE01020C749087006E02020C5498C
:10062000087002E04020C3490870C84800684007CD
:1006300002D40120C6490870BC48006810218843D4
:10064000BA490860BB480078C149097800F05AFAF5
:10065000C0490870BF480478BE480078032100F004
:1006600051FA201A401EBC490870BA480078202868
:1006700003D10220B949087006E0B6480078402846
:1006800002D10420B5490870002080B2402807DA62
:100690000021C24A80B204234343D150401CF4E7F6
:1006A0000020C0B202283EDA0C21934AC0B22A23AD
:1006B0004343D1520021904AC0B22A234343D21867
:1006C000518000218C4AC0B22A234343D218918022
:1006D00000218A4AC0B208234343D1520121874AEC
:1006E000C0B208234343D21851800021834AC0B2CC
:1006F00008234343D21891710121804AC0B20823D4
:100700004343D218517105217C4AC0B208234343A8
:10071000D21811710021784AC0B22A234343D2185B
:100720001185401CBDE700F077F90024E4B2102CDD
:100730003CDA684600F0A0F90025280084490978D1
:10074000C0B2884230D26C48EDB22A2169434018C9
:10075000E4B20221614346186846EDB202216943C2
:10076000405A102100F0CEF9F0806348EDB22A2102
:1007700069434018008D6049EDB22A226A43891806
:10078000E4B2022262438918C98840185A49EDB27E
:100790002A226A43891808856D1CCEE70020024092
:1007A0000410024000100240641CBFE76848007853
:1007B000022806D15F480078022100F0A3F94E49D3
:1007C000888077480068802189020143744801606D
:1007D0007448754908605F480078042100F092F978
:1007E0000100C820000100F08DF9401E6F4908602B
:1007F00001206F4908601520FFF75AFC01211520E0
:10080000FFF75DFC6B4A4B480178644800F01DFA25
:100810004F480078022868D067480068882189001E
:10082000014365480160654800688021C9020143B1
:10083000624801609020C005006861490143902032
:10084000C0050160564800688021090101435448F1
:1008500001605C48006880214900014359480160FB
:10086000BB2059490860FE205849086000205849BB
:100870000860682057490860012057490860BB207C
:1008800056490860FE205649086000205549086016
:10089000002055490860D020C001544908606820F4
:1008A00053490860802000025249086088204000B7
:1008B00051490860012051490860012050490860F1
:1008C00050480068812101434E4801604E4800684D
:1008D000812101434C4801608F203D490860102070
:1008E00040490860002040490860484800680121EC
:1008F00001434648016073BD68020020BC0200202D
:100900004348006801218843414908603F48006826
:10091000012188433D4908603E4800780221014397
:100920003C48017070470000141002400C00004861
:1009300010140048D702002036480078FE210140FC
:100940003448017070470000FFFFBFFF10000048EF
:1009500000000020D9020020D80200200100002061
:1009600080B52C4800788007FBD52A480078012103
:1009700001432848017000F0C5F926480078C007F7
:10098000FBD424480078FD210140224801701F4813
:100990000068012101431D48016001BD08010020DC
:1009A000181002401F030000284401402C4401405D
:1009B0000C44014039090008240000482000004888
:1009C000000228001C100240282000402C2000407B
:1009D000342000401820004020200040282C0140F6
:1009E0002C2C0140382C01403C2C0140182C01409B
:1009F0001C2C0140442C0140202C014014200040BC
:100A0000142C014000200040002C01400044014013
:100A100010440140D602002000B59020C0050068B7
:100A20000F2101439020C005016023480068802108
:100A300089000143204801602048006880210906A0
:100A400001431E4801601D4800680028FBD4802037
:100A500000061B49086003201A49086001201A4952
:100A600008601648006801210143144801601748D6
:100A70000068C007FBD500BD00B50021C9B202293E
:100A800018DA134AC9B202234B43D25A0E4B1A60EA
:100A90000A4A126804231343084A13600B4A126877
:100AA0005207FBD50B4A1268C9B202234B43C2520C
:100AB000491CE3E700BD0000181002400824014073
:100AC0001024014014240140282401400024014046
:100AD0001411000840240140F446002804D449427F
:100AE00000F013F8404260474042002905D45FD02F
:100AF00000F00BF8404249426047494200F005F8D7
:100B00004942604703460B43E6D40022030A8B4266
:100B10000BD203098B4219D243088B422ED2411AC1
:100B200000D20146524110467047FF2209023FD0D1
:100B300012068B4205D3121209028B4201D3121204
:100B4000090203098B4219D300E0090AC3098B4249
:100B500001D3CB01C01A524183098B4201D38B01CF
:100B6000C01A524143098B4201D34B01C01A524172
:100B700003098B4201D30B01C01A5241C3088B42B7
:100B800001D3CB00C01A524183088B4201D38B00A2
:100B9000C01A524143088B4201D34B00C01A524144
:100BA000884200D3401A5241CFD2014610467047C6
:100BB00008B500F0A7F908BD0121C206D20E914088
:100BC000B44A11607047F0B540B2002821D58C4C72
:100BD00040B20207120F083A950804225543884A8A
:100BE00040B203071B0F083B9B0804267343D258EF
:100BF000FF238607B60F08277E43B3409A438B0135
:100C0000DBB28607B60F08277E43B3401343635118
:100C10001AE0A14A40B2830804246343D258FF2358
:100C20008407A40F08256C43A3409A438B01DBB2D1
:100C30008407A40F08256C43A3401343964A40B28F
:100C4000840804256C431351F0BD70B505000C00F9
:100C500016009248056092480470924806609248D7
:100C60000068012101439048016090489049086064
:100C70009048914908609148914908600920FFF720
:100C80009BFF00210920FFF79EFF9020C005006810
:100C90008021090201439020C00501608948006855
:100CA000A021C90501438748016087480068C02129
:100CB0000902014384480160844800688021C90119
:100CC000014382480160824800688021C9020143D3
:100CD0007F48016004207F4908600B207E4908603E
:100CE00068207E490860802000027D49086001205C
:100CF0007C490860802080007B49086000207B4997
:100D0000086070BD80B5002079490880002000F09F
:100D100079F877480088801C75490880022000F027
:100D200071F86020734908600020604908606448D9
:100D3000006801210143624801606F480068012199
:100D400001436D48016001BD80B56C4800684007F3
:100D500018D56748008852490978891E884208DA00
:100D600063480088801C62490880002000F04AF82F
:100D70003EE05F480088801C5D490880002000F04C
:100D80006FF835E05D480068800731D55848008825
:100D90004349097889B2884208D255480088801CA6
:100DA00053490880022000F02DF821E050480088C7
:100DB0003B49097889B2884208D14D480088801C97
:100DC0004B490880022000F04BF811E04A480068C7
:100DD0000121884348490860002044490860384898
:100DE000006801218843364908602E480068804722
:100DF00043480068012101434148016001BD0000F2
:100E00001CED00E070B5002189B2022927DA00222A
:100E1000D2B2182A21DAC0B2431818246343173318
:100E2000D2B29B1A1D4C2468314D2D8889B26D18A1
:100E300004267543645901259540254001249440BA
:100E4000A54204D10A241B4D9BB2EC5403E00224BA
:100E5000184D9BB2EC54521CDAE7491CD4E770BD24
:100E600030B5002189B2022912DA0022D2B2182A42
:100E70000CDAC0B289B2431818246343D2B29B186B
:100E800000240C4D9BB2EC54521CEFE7491CE9E7DF
:100E900030BD000000E100E000E400E0CC020020F2
:100EA000DA020020D0020020141002403448014031
:100EB000100002400802002014000240B631000079
:100EC0000800024020000048080000480C000048CC
:100ED00018100240284801402C48014018480140A1
:100EE00044480140204801400C480140104801405E
:100EF000D40200200C0002400048014000000240E3
:100F0000040002407047FEE71948006801210143D0
:100F100017480160174800681749014015480160EB
:100F200013480068154901401148016010480068E5
:100F3000134901400E4801600E4800681149014004
:100F40000C480160104800680F2188430E49086072
:100F50000E4800680E4901400C4801600D480068C9
:100F6000012188430B49086000200B490860704745
:100F700000100240041002400CB8FF08FFFFF6FE0C
:100F8000FFFFFBFFFFFFC0FF2C10024030100240AC
:100F9000ECFEFFFF3410024008100240050007007D
:100FA00009000C000F00140018001E002D00300076
:100FB0003C004C00600079009800C000F200300155
:100FC0007F01E2015F02FC02C2033704BB044E054D
:100FD000F405AE067E0769087009960AE10B540D08
:100FE000F40E000070B40121002213E00468001D1B
:100FF0000C4202D04D466D1E64192260241D1B1F39
:10100000042BFAD225009E0701D52280AD1C0B408F
:1010100000D02A700368001D002BE7D170BC704718
:1010200030B401210268001D002A0FD00368C318E4
:10103000446808300C4202D04D466D1E64191D688C
:1010400025601B1D241D121FECD0F8E730BC704733
:1010500010B5074979441831064C7C44163404E035
:10106000081D0A68891888470100A142F8D110BDFF
:1010700008000000280000006DFFFFFFD401000001
:10108000080100200000000099FFFFFF040000009D
:10109000A8000000000000200000000000F00BF895
:1010A000002801D0FFF7D4FF0020C046C046FFF75C
:1010B00048F800F002F80120704780B500F002F80F
:1010C00001BDFEE70746384600F002F8FBE7FEE701
:1010D00080B5C046C046024A11001820ABBEFBE7EF
:1010E00026000200704700B5FEE770477047704762
:1010F00080B5FFF705FC01BD014880470148004766
:10110000090F000809110008C046C046C046C04685
:10111000FFF7C4FF01000200FEE7FEE7FEE7FEE77F
:10112000FEE7FEE7FEE7FEE7FEE7FEE7FEE7FEE797
:0C113000FEE7FEE7FEE700000201000001
:0400000508001109D5
:00000001FF
